:060000000A128A110C280F
:10000800FE00030EF0000A08F1000A128A11C52F3B
:100018000A128A11AA2F0B30F2008730F300A030A1
:10002800F5210A128A1173087204031D2028603012
:10003800D301F30086308629FB30F2008630F300C6
:10004800A030F5210A128A1173087204031D3228A0
:100058004F30D301D30AF300863086291030F200DE
:100068008730F300A030F5210A128A117308720450
:10007800031D43282A30CB01F30086308629F5304A
:10008800F2008630F300A030F5210A128A117308B5
:100098007204031D55281630CB01CB0AF3008630B5
:1000A80086290630F2008730F300A030F5210A12C5
:1000B8008A1173087204031D65288C210A128A119B
:1000C8008829E230F2008630F3000630F400A030D0
:1000D800F50125220A128A1173087204031DC32828
:1000E800A63060220A128A112708B7002608B6002F
:1000F8002508B5002408B4003708803AFF0080308E
:100108007F02031D912800303602031D912800301C
:100118003502031D91280B303402031CBF28370811
:10012800803AFF0080307F02031DA4280030360289
:10013800031DA42807303502031DA428D03034023B
:100148000318BF283708D1003608D0003508CF007B
:100158003408CE00BD30F3008630F400D7210A12EF
:100168008A11A630F300F401D7210A128A1132301D
:10017800F300853086298130F300863086290130E6
:10018800F2008730F3000430F400A030F501252296
:100198000A128A1173087204031D7629A430831287
:1001A8000313B900840083130008B300B90A39089F
:1001B80084000008203A0319B90A390884000008A5
:1001C800623A0319ED28390884000008423A031DF1
:1001D800F328390ADD220A128A11720826293908F9
:1001E80084000008303A031D07293908013E8400BD
:1001F8000008783A03190F293908013E84000008DD
:10020800583A03190F29390884000008B4220A1241
:100218008A11F31B152939083C230A128A1175081B
:1002280026293908840030300002031C282939089F
:1002380084003A30000203182829390860220A127B
:100248008A112408B80041290230F3008630862933
:10025800380885004F29380888004F293808860053
:100268004F2907303805FB000708F8397B04870059
:100278004F29A030F300863086293308413A031904
:100288002C29033A03193229013A03193529073A67
:1002980003192F293D29E930F3008630F400D721CE
:1002A8000A128A1133081F220A128A11D730F30062
:1002B8008630F400D7210A128A11380E80230A12D8
:1002C8008A1100240A128A111F220A128A11380878
:1002D80080230A128A1100240A128A111F220A1284
:1002E8008A118329AF30F3008630F400D7210A122F
:1002F8008A11A030F300F401D7210A128A11FF30C5
:10030800F3008530F400D721CD018316A001080041
:10031800CB30F3008630F400D7210A128A11BC30A2
:10032800F3008530F400D7210A128A11A330F300B4
:100338008530F400D7210A128A111830F30085306D
:10034800F400D7210A128A113830F3008530F400FE
:10035800D7210A128A11F730F3008430F400D7212C
:100368000A128A11A330F3008430F400D7210A124C
:100378008A118A30F3008530F400D7210A128A11D5
:100388006F30F3008430F400D7210A128A11D43078
:10039800F3008530F400D7210A128A11EF30F300F8
:1003A8008630F400D729740883120313FF007308FA
:1003B80084000A128A1100240A128A1100380319CB
:1003C80008007408FF00730884000A128A110024C8
:1003D8000A128A111F220A128A11F30A0319F40A4F
:1003E800D729F900FD297908F90A8400800803193A
:1003F800192A7308F5007208F400F20A0319F30ABF
:100408007508FF00740884000A128A1100240A1271
:100418008A11F6007908840083130008F70076082B
:100428007702F800F8080319F7297808F200F301B1
:10043800F21BF3030800F2000C1E202A7208990030
:100448000800F8000130F4020030031CF503F5023F
:10045800740A0319750A03195D2A7808840083133E
:1004680080080319462A730888230A128A1100246F
:100478000A128A11F60078088400831300087606A9
:100488000319582A730888230A128A110024F600CF
:100498007808840083130008F70076087702F200D2
:1004A800F301031CF3030800F80AF20A0319F30A1C
:1004B800262AF201F301080083120313B200AE01E9
:1004C800AF01B001B101A42A320884003A30000219
:1004D8000318AB2A320884000008D03EA800FF3079
:1004E80003180030A9002808AA002908AB00AC01AD
:1004F800AD013108F5003008F4002F08F3002E088C
:10050800F2000A30F600F701F801F90109230A128E
:100518008A117208AA0773080318730FAB077408C7
:100528000318740FAC0775080318750AAD072D0872
:10053800B1002C08B0002B08AF002A08AE00B20AA0
:10054800320884003030831300020318682A310807
:10055800A7003008A6002F08A5002E08A400080050
:10056800F40030307402031CC12A3A3074020318B4
:10057800C12A7408F200D030792B41307402031C70
:10058800CD2A473074020318CD2A7408F200C93006
:10059800792B61307402031CD92A6730740203185E
:1005A800D92A7408F200A930792BFF30F200F30041
:1005B8000800FA00F801F9017A0884000008303AC6
:1005C800031DFE2A7908F5007808F4000310F40DDD
:1005D800F50D7A0884000008D03EF600FF300318B5
:1005E8000030F70074087604F80075087704F900FD
:1005F800FA0AE02A7A0884000008313A0319E62A40
:100608007908F3007808F2000800A001A101A2010E
:10061800A301721C232B7608A0077708031103187F
:10062800013E031DA107780803110318013E031DAD
:10063800A207790803110318013E031DA30703103D
:10064800F60DF70DF80DF90D0310F50CF40CF30C7D
:10065800F20C7508740473047204031D0D2B23082F
:10066800F5002208F4002108F3002008F200080031
:10067800A400A201A30184000008303A031D542BF2
:100688002408013E84000008783A0319522B2408F4
:10069800013E84000008583A031D542BA40AA40AFA
:1006A800240884000008B4220A128A117308A100E1
:1006B8007208A000A11B742B2308F8002208F70079
:1006C800F030F70EF80EF80577080F39F804F03017
:1006D800F70520087704A20021087804A300532B0B
:1006E8002308F6002208F5000800F301F2070318B2
:1006F800F30AFF30F30708000F39123E84008430F4
:100708000318013EFF00080083120313FF0072085C
:100718008400080083168801831288010630831636
:100728009F00850183128501831686018312860145
:100738000A128A11DA270A128A110A128A11E7277D
:100748000A128A112330F3008430F4000A128A1145
:10075800D7210A128A1153080319F02B4A084602B6
:10076800031DC02B49084502031DC02B480844023D
:10077800031DC02B47084302031CF02B4608CA0080
:100788004508C9004408C8004308C7004E08C70701
:100798004F0803110318013E031DC8075008031131
:1007A8000318013E031DC907510803110318013E30
:1007B800031DCA0752088800CB080310031DEC2B41
:1007C800D20D5208803A031DF02BCB01CB0AF02B37
:1007D800D20C520BF02BCB010A128A1115270A12E0
:0407E8008A11AF2B98
:10080000FF1B0A2C83137F1883170008840A03191F
:10081000FF0A08007F087F398A000408840A031948
:10082000FF0A8200303431343234333434343534D6
:100830003634373438343934413442344334443430
:100840004534463400340D340A345034493443348A
:100850003134363446343834373437342034523433
:1008600065346134643479342E340D340A344B34B5
:100870006E346934673468347434203452346934E3
:10088000643465347234203443346F346D346D34E1
:1008900061346E34643420344D346F3464346534E0
:1008A0002E340D340A3454347934703465342034A1
:1008B0002734683465346C3470342734203466341B
:1008C0006F347234203463346F346D346D3461347A
:1008D0006E34643473342E340D340A3400342034CE
:1008E00073346534743420343C3470346F3472346F
:1008F00074343E3420343C34763461346C34753492
:1009000065343E3420342D342034733465347434EB
:10091000203470346F3472347434203428344134C9
:100920002C3442342C3443342C3444342934203491
:1009300074346F342034763461346C3475346534F7
:100940000D340A3400342034733465347434203464
:100950003C3470346F34723474343E3420343C345C
:10096000763461346C34753465343E3420342D343F
:100970002034733465347434203470346F347234FA
:1009800074342034283442342C3443342C344434EA
:100990002934203474346F342034763461346C3428
:1009A000753465340D340A34003457347234693484
:1009B000743469346E3467342034303478344134DC
:1009C0003534203474346F34203461346434643406
:1009D00072346534733473342034303478343134C1
:1009E00030342E342E342E340D340A340034203476
:1009F0007234693467346834743420342D342034CC
:100A000066346F347234633465342034723469343C
:100A1000673468347434203464346934723465342F
:100A20006334743469346F346E340D340A340034F2
:100A300020347334703465346534643420343C3489
:100A40006D3473343E3420342D34203473346534A3
:100A50007434203473347034653465346434203431
:100A600069346E3420346D3473340D340A340034F8
:100A700020346C3465346634743420342D3420349E
:100A800066346F3472346334653420346C346534C6
:100A900066347434203464346934723465346334B5
:100AA000743469346F346E340D340A340034523483
:100AB00065346134643469346E34673420346134AD
:100AC00064346434723465347334733420343034B1
:100AD0007834313430342E342E342E340D340A34FC
:100AE00000340D340A3443346F346E346E3465345C
:100AF0006334743469346F346E3420346434653450
:100B00007434653463347434653464342E340D3491
:100B10000A3400342034683465346C347034203442
:100B20002D342034733468346F3477342034743483
:100B30006834693473342034683465346C34703408
:100B40000D340A3400342034733474346134723414
:100B5000743420342D342034723465347334753455
:100B60006D346534203463346834613473346534EF
:100B700072340D340A3400342034733474346F34D6
:100B8000703420342D342034663472346534653446
:100B90007A346534203463346834613473346534B2
:100BA00072340D340A3400342034753470347034A7
:100BB0002E34203470346F347234743420346C34F6
:100BC0006534743474346534723473342034773457
:100BD0006F3472346B3400344534453450345234FD
:100BE0004F344D34203474346534733474342034C9
:100BF0004634413449344C344534443421340D3482
:100C00000A34003469346E34763461346C346934B7
:100C1000643420347334653474342034763461346D
:100C20006C34753465340D340A34003464346934FA
:100C3000723465346334743469346F346E34203400
:100C40003D342034723469346734683474340D347C
:100C50000A3400346434693472346534633474346F
:100C600069346F346E3420343D3420346C34653450
:100C7000663474340D340A34003445344534503409
:100C800052344F344D3420347434653473347434F6
:100C900020344F344B3421340D340A34003463345F
:100CA000683461347334653472342034723465349A
:100CB000733475346D34653464340D340A3400345F
:100CC000633468346134733465347234203473347B
:100CD00074346F3470347034653464340D340A34D1
:100CE00000345234653461346434203476346134F1
:100CF0006C347534653420343D34203430347834E9
:100D0000003469346E34763461346C34693464345C
:100D10002034733470346534653464340D340A34EB
:100D2000003445344534503452344F344D3420343B
:100D300054346534733474343A340D340A34003422
:100D400069346E34763461346C34693464342034FC
:100D500070346F34723474340D340A3400346D34AA
:100D600065347334733461346734653420347734D4
:100D7000613473343A34203400347334703465345D
:100D800065346434203473346534743420347434FA
:100D90006F342034003443346F346D346D34613437
:100DA0006E34643473343A340D340A3400342034ED
:100DB000733465347434203474346F3420343034F4
:100DC00078340034733470346534653464342034DA
:100DD000003450346F34723474342034003452345C
:100DE00041343E3433344634003472346934673429
:100DF0006834743400347334743461347234743449
:100E00000034733465347434203400346834653409
:100E10006C3470340034733474346F347034003490
:100E20006C346534663474340034A1270A128A1194
:100E3000730872040319782F1A08BE004608C2000E
:100E40004508C1004408C0004308BF00CC08031D8A
:100E5000342F7130F3008530F4000A128A11D72143
:100E60000A128A11CC01CC0A3E080D3A03193C2F14
:100E70003E080A3A031D532FFF30F3008530F4007B
:100E80000A128A11D7210A128A114D080319502F0C
:100E90004D08A03E8400831380010A128A110F209E
:100EA0008312CD0108003E08083A031D692F4D0842
:100EB000031908000830CD030A128A111F220A12F2
:100EC0008A1120300A128A111F2208300A128A1150
:100ED0001F2A1F304D02031808004D08A03E840051
:100EE0003E0883138000CD0A3E080A128A111F2A89
:100EF0004C08031908003F084302BA004408BB002D
:100F00004008031C400FBB024508BC004108031CFD
:100F1000410FBC024608BD004208031C420FBD023F
:100F200000303D02031D9E2F00303C02031D9E2F0A
:100F300013303B02031D9E2F89303A020318CC0167
:100F4000080003108C1A0314003003180130F2005B
:100F5000F30108003F30831384004E300A128A11D7
:100F6000F3270A128A11A0308400C0300A128A11B5
:100F7000F3277830CE000130CF01D001D101D2006B
:100F8000D30083010A128A118E2B0B1DD32F0B1154
:100F900083120313C30A0319C40A0319C50A0319E8
:100FA000C60AE130810071088A00700E8300FE0ECF
:100FB0007E0E09008316E130811281110115811026
:100FC0000110831281000B118B168B17080019304A
:100FD00083169900181518128312981783169816FD
:100FE00083121816080064008001840A040603199D
:060FF00000340406F42F9A
:02400E0071FF40
:00000001FF
